S02A00004D4152505F544845524D4F434F55504C455F54455354494E475F31325F31355F31382E7372656308
S1130000182C00206D1B0000691B0000691B0000F8
S113001000000000000000000000000000000000DC
S1130020000000000000000000000000691B000048
S11300300000000000000000691B0000691B0000B4
S1130040691B0000691B0000691B0000150100000A
S1130050691B0000691B0000691B0000691B00008C
S1130060691B00003D0500004D0500005D05000012
S11300706D0500007D0500008D050000691B000072
S1130080691B0000691B0000691B0000691B00005C
S1130090691B0000691B0000691B0000691B00004C
S11300A0691B0000691B0000691B0000691B00003C
S11300B00000000010B5064C2378002B07D1054B37
S11300C0002B02D0044800E000BF0123237010BDC0
S11300D0C00900200000000054850000084B10B542
S11300E0002B03D00749084800E000BF0748036815
S11300F0002B00D110BD064B002BFBD09847F9E72D
S113010000000000C409002054850000548500004C
S11301100000000010B50F4B1A681468518A138A46
S11301201940207AE379034058B2002806DBDB0744
S113013003D5CB070AD40123237210BD8B0702D445
S113014080232372F9E7D3689847F9E793689847BF
S1130150F1E7C046500A0020F0B5DE4657464E4649
S11301604546E0B587B08046049116001F00002282
S1130170002300218B463F24012021000096019793
S11301805C4603944446059413E02024641A050055
S1130190E540A84614E0009C019D121BAB415C465F
S11301A04D462C43A346039C45462C4303940139F6
S11301B025D3202464420C19E7D40500A540A846A1
S11301C004008C40A14692185B4114001D00059E5A
S11301D04F463E40B446049E47463E40B2466646BD
S11301E057463E4303D00600264332002B00009CB2
S11301F0019D9D42DBD8CED19442D8D8CBE7039B56
S11302005846190007B03CBC90469946A246AB46F6
S1130210F0BD10B5490840230024814202D21800E1
S113022010BD1C00091A631C9BB28842F9D94023F3
S1130230FF2CF4D814800023F1E70000F0B583B05C
S11302400F00160008AA117804004C434022BC4257
S113025002D9100003B0F0BD002B14D10200080035
S11302600021194CA04701003A0000230020174C3C
S1130270A04700220123121A8B41120C1B041A43BB
S113028032800022E5E70022012BF9D10A00002385
S113029000210D4CA04702000B000092019338008E
S11302A000210A4CA047050080239B01402298426C
S11302B0CFD8790FF800009A019BA047EA00821A70
S11302C0D2B252032A43DBE729210000590100007E
S11302D010B582B004000E4B1B78002B07D0002908
S11302E005D10B4B5B78834210D01D200CE001A993
S11302F00C701320074B98471320074B9847044B67
S11303005C7001221A70002002B010BD0020FBE7CF
S1130310DC090020111A000085190000404B9842A6
S113032031D00AD93F4B98424DD03F4B98425AD0D6
S11303303E4B984237D0002070473D4B98420CD03A
S11303403C4B9842F7D1012917D000295DD00229EE
S113035015D0032915D00020EEE7012907D0002984
S113036051D0022905D0032905D00020E4E7324802
S1130370E2E73248E0E73248DEE73248DCE7324879
S1130380DAE73248D8E7012907D000293FD002290B
S113039005D0032905D00020CEE72D48CCE72D4811
S11303A0CAE72D48C8E7012907D0002931D002291E
S11303B005D0032905D00020BEE72848BCE728481B
S11303C0BAE72848B8E7012907D0002923D0022931
S11303D005D0032905D00020AEE72348ACE7234825
S11303E0AAE72348A8E7012907D0002915D0022944
S11303F005D0032905D000209EE71E489CE71E482F
S11304009AE71E4898E71E4896E7032094E71D489C
S113041092E71D4890E71D488EE71D488CE7C046CB
S11304200010004200180042001C00420014004268
S113043000080042000C004203000500030006000F
S1130440030007000300010003001E0003001F0057
S11304500300090003000A0003000B00030011005D
S1130460030012000300130003000D0003000E003C
S113047003000F0003001700030018000300190015
S113048003000400030008000300100003000C0034
S11304900300160030B587B00B4B6A4632CB32C22C
S11304A032CB32C2009B83420BD001239A006946AF
S11304B05258824206D00133062BF7D1002007B0F0
S11304C030BD0023D8B2FAE72C800000704700004A
S11304D0F0B50A4B1B78002B0CD1094F094E0A4D7D
S11304E00024DE515A1914600433182BF9D1012267
S11304F0024B1A708000024BC150F0BDDE0900208F
S1130500E0090020CD040000540A002000B583B0A7
S113051009236A4613700133537001339370013316
S1130520D3700133137101335371034B98476B46F6
S1130530185603B000BDC0469504000010B5024B28
S11305401B680020984710BDE009002010B5024B3D
S11305505B680120984710BDE009002010B5024BEC
S11305609B680220984710BDE009002010B5024B9B
S1130570DB680320984710BDE009002010B5024B4A
S11305801B690420984710BDE009002010B5024BF8
S11305905B690520984710BDE0090020F0B58BB0D9
S11305A005000C00160029600B681C209B0701D570
S11305B00BB0F0BD0B681738DB07F9D408006F4B9C
S11305C098476F4A116A871C0123BB400B4313628F
S11305D009A92427F35D0B701430C3B201931800EA
S11305E0684B98470198684B9847F05D0021674B2A
S11305F098473378012B3FD03378002B03D12368FD
S11306000822134323602B000C33290028310022D5
S113061004C38B42FCD10023EB62AB620024AB86A3
S11306202B863633EC540133EC540133EC54353B14
S11306306B722C712868514B984707005449554BED
S11306409847BF00544BFD502F6804AB80221A70AA
S11306505C707F3A9A70DC703378002B02D10022F0
S113066004AB9A70B36A0593F36A0693336B0793EA
S1130670736B089300240BE023680C22134323605C
S1130680BAE73800454B98470AE00134042C10D0EF
S1130690E1B2A30002AA0C201218D0580028F0D00E
S11306A0431CF2D004A90870000CC0B23C4B98471C
S11306B0EBE733786B71337CAB71B37CEB71337DD7
S11306C02B72002202ABDA803378012B12D03378FC
S11306D0002B26D1B069B28B7B6AF17F0904B47F09
S11306E02143194379622023F35C002B1BD0402360
S11306F01A4318E02868214B98471430C0B2294B9C
S11307009847010002AB9A1DB069274B9847030034
S11307101720002B00D04BE702AB06331B783B734A
S1130720D5E7002200207368B1680B43F1680B43DE
S11307300343317C0A43717C002903D11B49897826
S1130740890701D580210B43B17C002902D0802187
S113075089020A43F17C002902D0802189000A43DE
S1130760317D002902D0802189010A4339680B4375
S11307703B607B681A437A60002019E79504000007
S113078000040040111A000085190000D102000085
S1130790CD080000D1040000540A00201D0300000D
S11307A0091B00002D1A0000130200000020004164
S11307B0F0B5D6464F4680B583B08C463825465DA5
S11307C0333D052E75D01235002A72D0C479053513
S11307D0002C6ED04479002C03D10468257EA9072F
S11307E00AD4013A94B20026042202218946012740
S11307F0DB05DB0D9A4637E002252576F1E7016833
S11308000B7E3B42FCD00B7E3B4209D053468B62AD
S11308102DE00B7E4D462B4238D10B7E134245D042
S113082001680B7E1342FCD00B7E134240D04B8BED
S113083000250195134202D04A831E230193837934
S1130840012B27D08B6ADBB20199002937D1751CA3
S1130850ADB261468B55817901291FD02E00013C30
S1130860A4B2184B9C421FD04379012BC7D04379C3
S1130870002BD5D101680B7E1342CAD1124B0D7ED9
S11308801542C6D1013B002BF9D1C2E702230B76F6
S113089004250EE08B6ADB05DB0DD5E70236B6B224
S11308A01B0A61464B55DAE7019D02E0122500E080
S11308B01025280003B00CBC91469A46F0BD019D5A
S11308C0F7E7C046FFFF000010270000F8B58000DE
S11308D0854BC45826683723E35C3622A75C1F4047
S11308E0337EB57D1D40EB072ED56379012B25D0D2
S11308F0002B29D1637A002B26D02168E26A137871
S1130900DBB2501CE062A079012800D169E09BB2FF
S1130910DB05DB0D8B62A38E013B9BB2A386A38E0A
S11309209BB2002B10D101333375637A012B0BD1A9
S1130930E379002B08D10233B37505E0637A002B09
S11309403ED0637A002BD8D16B0711D5738B5B072C
S113095051D5637A012B08D01E223823E254353B4B
S11309606372023333753B0741D4B36A0423738340
S1130970AB0715D56379002B0ED107333375053BCF
S11309803376013363720023A3862386383300222F
S1130990E254FB0600D57FE06379012B00D17FE0B0
S11309A02B0708D56379002B05D1083333753376CB
S11309B0BB0600D58AE06DB2002D00DA8AE0F8BDEE
S11309C04A4B1B88B362638E013B9BB26386638E82
S11309D09BB2002B01D1013333756379012BB0D065
S11309E086E75078000203430232E26290E7200077
S11309F0A3699847B9E7637A012B27D023689B6AD8
S1130A00DB05DB0DDAB2A16A0A70A26A511CA1628D
S1130A10A179012933D0238E013B9BB22386238EF7
S1130A209BB2002BA4D100223833E254343B3375FB
S1130A30637A022B29D0637A002B00D098E7BB0796
S1130A4000D495E720002369984791E723689B6ABF
S1130A50638E013B9BB26386638E9BB2002B00D0F6
S1130A6086E70433337500223433E254353B637232
S1130A70FB0700D47CE72000E368984778E71B0A6B
S1130A805370A36A0133A362C5E77B0700D46FE701
S1130A902000636998476BE72000E36998477BE788
S1130AA0637A012B00D086E7E379002B00D082E73C
S1130AB0023333750133637200223533E254FB078A
S1130AC000D46DE72000E368984769E72000236AB3
S1130AD0984770E78023337533767B0600D46EE73E
S1130AE0636A200098476AE7540A00206C0A0020D1
S1130AF0F0B5DE4657464E464546E0B591B0050092
S1130B000C00160029600800BC4B984702002368BB
S1130B100520DB0706D511B03CBC90469946A24699
S1130B20AB46F0BD236817309B07F4D4B449086A78
S1130B30971C0123BB4003430B620FA92D27F35DD0
S1130B400B701432D3B202931800AE4B984702983C
S1130B50AD4B9847F05D0021AC4B9847F37A6B712D
S1130B602423F35CAB712523F35CEB71F37E2B72CE
S1130B70337F6B722B6898461800A04B984714304B
S1130B8000220E2306A98C4663441A80328A0292FC
S1130B908023DB019A4200D19EE00FD9C023DB0100
S1130BA0029A9A4200D192E080231B029A4200D01A
S1130BB01FE1032306930023079308E080239B018E
S1130BC09A4200D015E1102306930F3B0793336834
S1130BD00593F368039373690493337E9B4626233A
S1130BE0F35C9A4673689946002B00D1A0E08023F9
S1130BF05B05994500D184E0737E002B02D0B37E5F
S1130C00424693732A68029FD369002BFCD10E33AA
S1130C1006AA944663441B8842469381059B039A23
S1130C201343049A13434A4613431F435B461B0270
S1130C301F4353465B071F432723F35C002B01D15B
S1130C4004331F43737E9B02327F52021343727F2D
S1130C50120213432422B25C520413432522B25CD1
S1130C6012041343B17AF27A114319433389FF2BE7
S1130C7000D181E080225204174319432C23F35CF2
S1130C80002B03D1624B9B789B0701D580231F4324
S1130C902A68D369002BFCD1434659602A68D3697A
S1130CA0002BFCD143461F600EAB80221A70002239
S1130CB05A70DA709A70336B0A93736B0B93B36B3D
S1130CC00C93F36B02930D9300270AAE63E00823A1
S1130CD00693073B07937AE733680593F368039316
S1130CE073690493337E9B462623F35C9A467368A8
S1130CF09946002B18D080235B05994501D000202C
S1130D0025E02723F35C002B00D075E7336A1F002E
S1130D10C0B2404B984701000E2206AB9C46624489
S1130D2038003D4B984712E00823069300230793AD
S1130D302723F35C002B0ED0069B0093079B0E2207
S1130D4006A98C466244B16A306A344FB847002819
S1130D5000D0E0E650E7336A1F00C0B22D4B98473D
S1130D600100069B0093079B0E2206A8844662445A
S1130D7038002A4FB847EAE7F37E002B00D17DE71D
S1130D808023DB041F4379E72000254B984707E0C5
S1130D900137042F0DD0F9B2BB0098590028F3D0C5
S1130DA0431CF5D00EA90870000CC0B21D4B984727
S1130DB0EEE70023EB602B616B61AB61EB612B62AF
S1130DC0AB626B620022EB85AB853033EA540133AE
S1130DD0EA540133EA540133EA542868074B98472C
S1130DE004001149114B9847A400114BE550002011
S1130DF091E61023069300230793E8E69504000088
S1130E0000040040111A000085190000D1020000FE
S1130E10002000412D1A0000130200003D020000D2
S1130E201D030000091B0000390F0000D10400005D
S1130E30540A0020C2791C23002A01D118007047EB
S1130E40C28D92B2173B002AF8D10368DA69002AEE
S1130E50FCD1198502211A7E0A42FCD00023EDE759
S1130E60F0B5CE46474680B583B005000191172002
S1130E70002A04D103B00CBC90469946F0BDEB792E
S1130E800530002BF6D02C68E369002BFCD1013A25
S1130E9093B29946002601271F4B984611E0731C14
S1130EA09BB2019A915D6A79012A17D089B21E001A
S1130EB028001A4B98474B46013B9BB29946434541
S1130EC013D0237E3B42EAD1134B227E3A42E6D131
S1130ED0012B19D0013B002BF7D1E0E70236B6B263
S1130EE0019AD35C1B021943E2E7237E9B070DD4CE
S1130EF0094B0221227E0A420AD1012B0AD0013B6E
S1130F00002BF7D10020B5E71220B3E70020B1E7AA
S1130F100020AFE71220ADE7FFFF0000350E000010
S1130F20931C9B00C31859603021012393401A007D
S1130F30435C134343547047F8B58000624BC55873
S1130F402C68E369002BFCD1237EA67D1E40302350
S1130F50EB5C3122AF5C1F40F30722D5EB8D9BB2D3
S1130F60002B1CD0AA6A1378DBB2511CA9626979E0
S1130F7001290ED09BB2DB05DB0D2385EB8D013BF4
S1130F809BB2EB85002B0CD1013323750133A37580
S1130F9007E0517809020B430232AA62EBE701230E
S1130FA02375B30706D50223237500223133EA548F
S1130FB0FB071AD4730765D5AB8D9BB2002B5FD0AA
S1130FC0638BDBB21A0714D43F221340002B34D0B6
S1130FD09A0711D51A223223EA54303B63837B07E4
S1130FE050D528006B6998474CE02800EB68984777
S1130FF0E0E737221340E9E75A0705D51E223223DA
S1131000EA542E3B6383EAE7DA0705D51322322339
S1131010EA54313B6383E2E7DA0605D54222322300
S1131020EA54223B6383DAE720221A42D7D02132E2
S11310303223EA54123B6383D1E7238DDB05DB0DB6
S1131040DAB2696A0A706A6A511C696269790129AB
S113105010D0AB8D013B9BB2AB85002B12D1043376
S1131060237500222E33EA54BB070BD528002B69C5
S1131070984707E01B0A53706B6A01336B62E8E719
S113108004232375F30604D5102323752376FB0666
S11310900ED4B30604D52023237523763B070BD443
S11310A0330704D5082323752376BB0608D4F8BD7B
S11310B02800EB699847ECE72800AB699847EFE70D
S11310C02B6A28009847F2E7540A002070B58EB0C6
S11310D001246B461C700023019302936A46137427
S11310E053749474D4741375242269468B54183A37
S11310F0002106A8134B9847134B0693134B0A93EE
S1131100134B0B93134B0C93134B0D9380235B02E4
S11311100393124E6A4612493000124B98473568C1
S11311202800114B98471F23184084400F4B1C6024
S11311303268D369002BFCD12B68022213432B6045
S11311400EB070BDD52A000000093D000200100059
S1131150020011000200120002001300700A0020B5
S1131160000C00429D0500000D05000000E100E0B8
S113117010B50A4B1B78002B0DD0094B002201320D
S113118092B20133591E09780029F8D1002103488D
S1131190044B984710BD0022F8E7C046E00A00203F
S11311A0E10A0020D52A00000EB410B583B005AAC8
S11311B002CA0192084C2000084B98472000084BB3
S11311C0984782B221000748074B984703B010BCE8
S11311D008BC03B01847C046E00A0020FD2B0000FD
S11311E0692B0000AC0A0020610E000070B590B0BD
S11311F08023DB05009300230193FF2269460A81C3
S113120000228B72CB72012424216846445401319C
S1131210445401314354013143540A930531435436
S11312200131435405930382C376027602774276F2
S1131230132383764277E1235B0208931D4B0C93BF
S11312401D4B0D9301235B420E930F9380235B038D
S113125003931A4E6A461A4930001A4B9847356868
S11312602800194B98471F2318408440174B1C60D3
S11312703268D369002BFCD12B68022213432B6004
S11312800E4C013A12492000124EB0473125635DDD
S113129002221343635500220F492000B047635DC7
S11312A00122134363550D4920000D4B984710B09C
S11312B070BDC0460200160002001700AC0A0020F0
S11312C000140042F10A00000D05000000E100E0F6
S11312D0E5120000210F0000711100004880000099
S11312E0A911000010B502490248034B984710BDEC
S11312F0E00B002044800000A91100000C4B1B6887
S1131300002B06D1EFF31083002B07D00022094BEA
S11313101A70074A136801331360704772B6BFF33B
S11313205F8F0022044B1A700132024B1A70F0E7EF
S1131330F8090020FC0900200C000020084B1A6862
S1131340013A1A601B68002B09D1064B1B78002B4D
S113135005D00122044B1A70BFF35F8F62B6704749
S1131360F8090020FC0900200C000020F0B583B02F
S113137001AC012565700027A770257021003E206F
S1131380064EB0478022D205054B9A6127706570DE
S113139021000F20B04703B0F0BDC046A5130000E4
S11313A08044004100B583B001AB80221A700A78F2
S11313B05A704A789A708A78DA701900014B984703
S11313C003B000BD091B000010B5082803D8800035
S11313D01C4B1B589F46002032E01B4B18692FE022
S11313E01A4B1B6A9B059B0F1948D84028E0164BE3
S11313F0586925E0144B1B6800209B0720D513492E
S11314001022CB681A42FCD00F4B1A6824231340D5
S1131410042B01D00F4813E000200F4B98470A4BD0
S11314209B681B041B0C58430AE05023074AD35CF7
S113143000205B0704D5044BD86801E0802000023B
S113144010BDC0465C800000000A00200008004077
S113145000127A00006CDC022D1A000070B50C49F1
S11314600B6A047885784078012210408001402678
S1131470B34303432A40D20180208343134303220E
S1131480224012020348034013430B6270BDC0465E
S113149000080040FFFCFFFFF0B5DE4657464E460D
S11314A04546E0B50100264B9B469B8A457800786B
S11314B04242424191468878CA7894460A799046D5
S11314C04E7B0F7B8C7B8A681E494A6101214A4608
S11314D092009146042293434A46134342460A40EB
S11314E0D2009046082293434246134362460A4080
S11314F0120194461022934362461343084040016C
S11315002022934303430F40BF01402083433B43C6
S11315100E40F601403083433343793805402D02B1
S1131520094803402B4321400903084803400B4367
S11315305A4693823CBC90469946A246AB46F0BDBF
S113154000080040000A0020FFF8FFFFFFEFFFFF44
S113155010B5037A9B061B0C42899205920D134326
S113156018494B608379C2791343428884882243A3
S113157013434278D20113430B600378042B11D038
S1131580202B0ED1037B9B06028A1343C2891204CB
S11315900D490A4013430B4A936011680B4B0B43EC
S11315A0136010BD037B9B06028A1343C289120495
S11315B005490A401343034A9360136804210B430B
S11315C01360EEE7000A00200000FF03240400007B
S11315D0082803D88000254B1B589F46172044E059
S11315E0234A136A02210B43136200203DE0204A80
S11315F0936902210B439361002036E01C4A138A4D
S113160002210B43138200202FE0194A938A0221FE
S11316100B439382002028E016490B6802221343EF
S11316200B60134B9A8419000E32CB681A42FCD01B
S1131630104A91680E4BD96252689A6200229A84C9
S113164019001032CB681A42FCD00A4B1B689BB2BB
S1131650074A9384002008E0054944228B5C022059
S113166003438B54002000E000207047808000007A
S113167000080040000A0020F0B58FB0C222D2005A
S1131680474B9A60474A53681E218B431A390B43D0
S11316905360022201AB1A700024434DE0B201A949
S11316A0A8470134252CF9D10AA8002303708370BC
S11316B0802212028260C370012202710373837359
S11316C0023242704373394B98470520384B984790
S11316D033490222CB681A42FCD0314A938A8021D2
S11316E00B43938205AB00210022598099809A71A3
S11316F0DA713F3159813B3919705A702D4B1B688F
S11317009B0E3F2B4AD005A803722B4B0382072361
S113171003733833C381294B984704A800254570C7
S1131720012686700570264B98470620204FB8473F
S1131730244B984701AC02966570257265720523A7
S1131740237021000120204B984701201F4B98470C
S1131750267021000020144B984700201C4B98470A
S11317600720B8470E49D022CB681340D02BFBD1B9
S1131770184A0023137253729372D37201A901227F
S11317804A604B700B724B7207330B7000200E4B88
S1131790984700200D4B98470FB0F0BD203BB2E7AF
S11317A00008004000400041111A00009914000094
S11317B0D115000024608000B90500005115000017
S11317C05D140000D9170000FD170000B5180000D3
S11317D08519000000040040064A936908210B4360
S11317E093610122044B1A7019000B781342FCD147
S11317F07047C04600040040000C004070B506006D
S113180004000D782D0205434B78002B02D0802371
S1131810DB021D434B7A002B02D080231B031D43A4
S11318204868012810D9431E184234D1022830D9FF
S11318300223002201325B009842FBD81202324399
S1131840140080235B031D430B7A002B02D08023FA
S11318509B031D43134A53785BB2002BFBDB124BF3
S11318609847124B1E700F4A53785BB2002BFBDB78
S11318700C4B9C601A0053785BB2002BFBDB094ACB
S11318805368802149020B401D435560084B98471B
S113189070BD0022D2E70402344380239B021D431F
S11318A0D2E7C046000C0040FD120000080C0040C6
S11318B03D13000010B504000B4A53785BB2002BB3
S11318C0FBDB0A4B98470A4B1C70074A53785BB200
S11318D0002BFBDB044A516880235B020B435360FB
S11318E0044B984710BDC046000C0040FD12000098
S11318F0040C00403D13000070B504001A4A5378EC
S11319005BB2002BFBDB194B9847194B1C70164A32
S113191053785BB2002BFBDB134E7068C004C00E1F
S1131920144B98470500124B1C707668F602F60FAC
S1131930114B1C700C4A53785BB2002BFBDB0A4B37
S11319409C682402240C0D4B9847002E07D1012CCF
S113195007D9210028000A4B9847050001E001340B
S1131960E540280070BDC046000C0040FD12000098
S1131970040C0040C9130000080C00403D13000093
S1131980FD1D000010B50400064B9847064B1C7063
S1131990064A53888021C9010B435380044B98475E
S11319A010BDC046FD120000020C0040000C0040B7
S11319B03D13000010B504000F4B98470F4B1C70EB
S11319C00F4A53881B05180F53880E490B40538048
S11319D053880D490B40538011008022D2014B885B
S11319E01342FCD106494A880302064802401343C5
S11319F04B80064B984710BDFD120000020C0040BE
S1131A00000C0040FFF0FFFFFFBFFFFF3D1300008D
S1131A1010B50C7824020443024B9847A4B2024B3D
S1131A205C8010BDB5190000000C004010B5040026
S1131A30064B9847064B1C70064B5C882405240F04
S1131A40054B98472000054B984710BDFD12000038
S1131A50020C0040000C00403D130000F918000087
S1131A6030B5D378002B35D11378802B29D01B06C1
S1131A7080246402234354780225AC4306D194782D
S1131A80002C20D18024A402234341605478013CDB
S1131A90012C1CD90D042D0CA024E4052C431C435B
S1131AA084620D0CD02424062C431C438462D47815
S1131AB0002C22D15B031CD59378012B1ED04161ED
S1131AC017E00023D7E7C024E4022343DDE70D4CED
S1131AD02340DFE741600C04240CA023DB052343EF
S1131AE083620C0CD0231B0623438362D378002B20
S1131AF003D15378013B012B02D930BD8161F8E752
S1131B008160FAE7FFFFFBFF10B50A00C10900235B
S1131B10002904D14309DB0105498C4663441F2491
S1131B202040012181401800024B984710BDC04657
S1131B3000440041611A00007047000010B5054BD5
S1131B409847054B9847054B9847054B9847054BD5
S1131B50984710BD791600006D130000391B000072
S1131B60391B0000391B0000FEE70000F8B52A4AC3
S1131B702A4B9A4211D01A00294B9A420DD2294A73
S1131B8003339B1A9B0801339B00002223482249FC
S1131B908C58845004329A42FAD1234A234B9A42F5
S1131BA00AD2D34321495B1803218B4304339B1886
S1131BB0002102C29342FCD11D4AFF211D4B8B43DD
S1131BC09360FD3990235B001B4AD1501B4AD378A4
S1131BD00325AB4302242343D370D3780C27BB43A0
S1131BE008263343D370164B987B3022904320222F
S1131BF010439873997BB943314399739A7BAA43F1
S1131C0022439A730F4A536880210B4353600E4B4F
S1131C1098470E4B9847FEE75485000000000020CB
S1131C20C009002004000020C0090020180C002076
S1131C3000ED00E000000000007000410050004191
S1131C4000480041004000418D2A0000751C00003E
S1131C500300064A1268002A04D0044A1068C31814
S1131C60136070470249014A1160F6E7180A002020
S1131C70182C0020F0B5CE4600B586B0474B9847E7
S1131C80474B9847474B98470122474B1A70BFF37D
S1131C905F8F62B600230493444B19688022D200FC
S1131CA01143196019690A431A610023404900224B
S1131CB05818027001330A2BFAD121E03D4B9847A2
S1131CC000223D4B3D4CA0473D4B98473D4B984728
S1131CD002000B003C493D483D4CA04700203D4BD1
S1131CE098476422002300213B4CA0473B4B00242F
S1131CF0C01861413A4A00233A4CA0473A4B9847EE
S1131D002A4D2B69394A13402B610020314B9847E7
S1131D1002900023039302980399304B0024C018C7
S1131D2061412F4A00232F4CA0472F4B984705AC05
S1131D30002301220F2102A8844661442C482D4E21
S1131D40B047002301220E2102A88446614428489A
S1131D50B047002301220D2102A88446614424488F
S1131D60B0470023012221002148B047637822783C
S1131D70E1780191A17800911F491448144CA047BF
S1131D802A698023DB0013432B61059B980C002BED
S1131D9094DA0300C020000218438FE73D1B0000C3
S1131DA0ED110000CD1000000C00002000440041A3
S1131DB0E40B0020FD2700000000D03FFD220000BE
S1131DC02529000081280000B8800000AC0A00200A
S1131DD0A9110000F918000029210000571B000078
S1131DE0581B0000E920000001000020FFFBFFFF5A
S1131DF0700A0020B1070000A480000000224308FC
S1131E008B4274D303098B425FD3030A8B4244D3BE
S1131E10030B8B4228D3030C8B420DD3FF22090200
S1131E2012BA030C8B4202D31212090265D0030BBF
S1131E308B4219D300E0090AC30B8B4201D3CB03B5
S1131E40C01A5241830B8B4201D38B03C01A5241F7
S1131E50430B8B4201D34B03C01A5241030B8B42F9
S1131E6001D30B03C01A5241C30A8B4201D3CB02E4
S1131E70C01A5241830A8B4201D38B02C01A5241C9
S1131E80430A8B4201D34B02C01A5241030A8B42CC
S1131E9001D30B02C01A5241CDD2C3098B4201D3E4
S1131EA0CB01C01A524183098B4201D38B01C01A62
S1131EB0524143098B4201D34B01C01A52410309D9
S1131EC08B4201D30B01C01A5241C3088B4201D388
S1131ED0CB00C01A524183088B4201D38B00C01A35
S1131EE0524143088B4201D34B00C01A5241411A5C
S1131EF000D20146524110467047FFE701B5002069
S1131F0000F0F0F802BDC0460029F7D076E770472C
S1131F1003460B437FD4002243088B4274D3030946
S1131F208B425FD3030A8B4244D3030B8B4228D3E7
S1131F30030C8B420DD3FF22090212BA030C8B420D
S1131F4002D31212090265D0030B8B4219D300E0AD
S1131F50090AC30B8B4201D3CB03C01A5241830B32
S1131F608B4201D38B03C01A5241430B8B4201D3E2
S1131F704B03C01A5241030B8B4201D30B03C01A0B
S1131F805241C30A8B4201D3CB02C01A5241830A85
S1131F908B4201D38B02C01A5241430A8B4201D3B4
S1131FA04B02C01A5241030A8B4201D30B02C01ADE
S1131FB05241CDD2C3098B4201D3CB01C01A524145
S1131FC083098B4201D38B01C01A524143098B42CE
S1131FD001D34B01C01A524103098B4201D30B01B7
S1131FE0C01A5241C3088B4201D3CB00C01A5241DC
S1131FF083088B4201D38B00C01A524143088B42A1
S113200001D34B00C01A5241411A00D20146524139
S1132010104670475DE0CA0F00D04942031000D358
S11320204042534000229C4603098B422DD3030AAD
S11320308B4212D3FC22890112BA030A8B420CD3BD
S1132040890192118B4208D3890192118B4204D3E6
S113205089013AD0921100E08909C3098B4201D366
S1132060CB01C01A524183098B4201D38B01C01AA0
S1132070524143098B4201D34B01C01A5241030917
S11320808B4201D30B01C01A5241C3088B4201D3C6
S1132090CB00C01A524183088B4201D38B00C01A73
S11320A05241D9D243088B4201D34B00C01A52414A
S11320B0411A00D20146634652415B10104601D3D7
S11320C04042002B00D54942704763465B1000D361
S11320D0404201B5002000F005F802BD0029F8D007
S11320E016E770477047C046002B11D1002A0FD164
S11320F0002900D1002802D00021C943081C07B4DC
S1132100024802A14018029003BDC046D9FFFFFF58
S113211003B4684601B5029800F030F8019B9E466E
S113212002B00CBC7047C046F0B5CE464746150415
S11321302D0C2E0080B50704140C3F0C9946030C9B
S11321407E435D43674363437F19340CE4199C4623
S1132150A54203D980235B029846C4444B465143AD
S113216043433604360C250C24046544A419591839
S1132170491920000CBC90469946F0BDF0B557466D
S11321804E464546DE46E0B5040083B00D00924657
S113219099468B422FD82CD04946504600F06AFC11
S11321A029000600200000F065FC331A9846203B05
S11321B09B4600D574E053465A4693401F0053464D
S11321C0424693401E00AF4229D826D05B46A41B4A
S11321D0BD41002B00DA79E0002200230092019334
S11321E001235A46934001930123424693400093AE
S11321F019E08242D0D900220023009201930C9B63
S1132200002B01D01C605D600098019903B03CBCB8
S113221090469946A246AB46F0BDA342D6D90022C9
S11322200023009201934346002BE8D0FB07720879
S11322301A4346467B080EE0AB4201D1A2420CD8B9
S1132240A41A9D41012024196D410021013E241846
S11322504D41002E06D0AB42EED9013E24196D410A
S1132260002EF8D15B460098019900196941002BB2
S113227022DB2B005A46D3402A004446E2401C008D
S11322805B461500002B2CDB26009E403300260005
S11322904746BE403200801A994100900191AEE752
S11322A0424620239B1A5246DA40414613004A46CE
S11322B08A4017001F4382E7424620239B1A2A00C4
S11322C046469A402300F3401343D5E74246202371
S11322D000219B1A0022009101920122DA4001920E
S11322E082E74246202326009B1ADE402F00B44694
S11322F0974066463B003343C9E7C046F0B55746AE
S11323004546DE464E46E0B50C0398464E00230B88
S113231087B0070092469B46760DCD0F002E6BD0FA
S11323206D4B9E4235D080245B46420F2404DB0073
S113233014431C43C3009946684BA3469C460023A0
S113234000276644029343461C035A00DB0F5046A1
S1132350240B520D984600D176E05F4B9A426DD023
S11323608023410F1B040B435C49E4008C461C434F
S1132370C300002062444146B6186940721C0191B2
S1132380944607430F2F00D9B0E0554ABF00D259F5
S113239097465B460343994600D087E000239B465B
S11323A0023308270293CEE742460192022867D0FF
S11323B0032800D10EE2012800D062E100230024AA
S11323C00022994601990140CDB2002112030B0D60
S11323D0120B1B051343434A240513401C4364009A
S11323E0ED0764082C434846210007B03CBC9046E6
S11323F09946A246AB46F0BD034399464FD05B468F
S1132400002B00D189E1584600F016FB03000B3B7A
S11324101C2B00DD7AE11D22D31A3A0001005C4630
S1132420DA4008398C4013008F4023439B46B94659
S113243000232D4E0027361A029384E75346234384
S11324402AD10024022096E75346234320D0002CAF
S113245000D157E1200000F0EFFA03000B3B1C2BE6
S113246000DD49E11D21CB1A51460200D9405346F3
S1132470083A944093400C431B4A121A00207AE70E
S11324800125019B144C1D400023002299469CE722
S11324900024002201206EE7534603206BE700234B
S11324A09B4601330427002602934CE7032381460D
S11324B00C27029347E78022002300251203994644
S11324C0054C82E75C464B4602986FE75C464B46F8
S11324D0019502986AE7C046FF07000001FCFFFF70
S11324E0BC800000FFFF0F800DFCFFFF4A464946F9
S11324F0170C1A0C1B041B0C08041900000C414394
S11325001500884619007D437943039589462900BF
S1132510150045434D44029545462D0CAA46029D9F
S11325205544A94506D98A46802149028946CA44A8
S113253051460391290C0491414609042D04090CC8
S113254088462900250C24044144240C05912100CB
S113255041438846210079438A46684341465044B2
S11325608146080C48446F43824503D980214902BF
S113257089464F44010C8946390049440291414639
S11325800F0404993F0C88460004C0198044414656
S1132590049159460F0C0904090C884659438A468C
S11325A039005143894641464A435146090C8B46FA
S11325B07B43D2185A44934203D980235B029B463F
S11325C0D94451460904090C8A46414661437C4377
S11325D0130C12044B445244A1468A463C00414623
S11325E06C434D4351464D440F0C7D19A94503D905
S11325F08021490288464444049F0399B8464144D3
S11326008B468345804141428846514608042F0445
S1132610000C3F185846029910188946904292417E
S11326204F44BA46524299469346C244D144CB449D
S11326308F42BF41C245894199459B41934592418F
S11326407F4249422D0C52420F435B4213437F1990
S1132650FF185B463C19DB0D059A64021C434302D8
S113266013435D1EAB415A46C00D0343520213434C
S1132670E20156D501205A0803401343E2071343ED
S113268064085A48604400284DDD5A0709D00F22D7
S11326901A40042A05D01A1D9A429B415B42E41851
S11326A01300E20104D58020514AC0001440604464
S11326B0504A904200DDE3E60125DB0862071A4335
S11326C06402019B9146220B4405640D1D407CE687
S11326D0802259461203114208D0144206D12243E3
S11326E01203120B45469946434C6EE65B461A4369
S11326F01203120B404C68E603005446283B9C40EE
S11327000023B9E600F098F92030A6E60300283B40
S11327109F400023BB4699468AE600F08DF920309D
S113272074E6B446ADE701252A1A382A06DD019B72
S113273000241D4000230022994646E61F2A21DC7E
S113274020252000AD1A1E00AB40A840D6405D1ED7
S1132750AB4130431843D440430709D00F2303400F
S1132760042B05D00300181D98429B415B42E418DA
S1132770230221D50125019B01241D4000230022B1
S1132780994622E61F2521006D42281AC1400800FF
S1132790202A1DD05F35AA1A944023435C1EA3410E
S11327A0072503431D400022002D09D00F220024D9
S11327B01A401800042AD6D1030065076402220BCC
S11327C0DB082B4301259946019B00241D40FCE5B1
S11327D00024E2E780220125120322430199120317
S11327E0120B0D409946044CEFE5C046FF03000070
S11327F0FFFFFFFEFE070000FF07000070B5002882
S113280030D0C317C4185C40C50F200000F014F981
S1132810174B184A1B1AD21A1F2A18DD164AD21A45
S11328209440002224035B05240B5B0D002110005F
S113283024030A0D240B12052243104C1B052240CD
S113284013435B00ED075B082B43190070BD2100A7
S113285091400A000B21081AC4405B052403240B91
S11328605B0DE3E70025002300240022DEE7C046D9
S11328701E0400003304000013040000FFFF0F8057
S11328804100090E4B1C70B5DBB24602750AC40F39
S1132890012B14DDE0239B006D07360BCB180021C0
S11328A00A0D280012051C4D32435B052A405B08C3
S11328B013435B00E4075B082343190070BD002940
S11328C014D1002D1ED0280000F0B6F80A281CDC14
S11328D00B232A001B1ADA40030015339D400F4BCB
S11328E012031B1A5B05160B5B0DD8E7002D06D0EF
S11328F0320B802636036D071643094BCFE7084B8E
S11329000026CCE700230026C9E703002A000B3B7E
S11329109A400025E3E7C046FFFF0F8089030000CB
S1132920FF070000F0B54C00640D0B03621C450F5B
S11329305B0A52052B43C90FC500520D012A28DD3D
S11329403A4AA618FE2E1BDC002E3EDD8001020052
S1132950501E82416D0F2A43DB0013435A0704D0F3
S11329600F221A40042A00D004338022D2041A40D1
S11329705AD00136FF2E03D09B015B0AF4B201E06A
S1132980FF2400235802E405400AC90720430843F2
S1132990F0BD002C07D01D43F2D08020DB00800462
S11329A00343FF26DAE72B4303D00523DB08FF2C80
S11329B003D05B025B0AE4B2E4E7002B32D0802050
S11329C0C00303435B025B0ADCE73200173214DB0B
S11329D080221E2712041343BF1B1F2F0FDC144A2F
S11329E0944664442A00A5402E00A340751EAE41BF
S11329F0FA40334313430026B0E70024D5E702220C
S1132A005242961B1A00F240202F09D009488446EE
S1132A106444A3402B435D1EAB41002613439DE752
S1132A200023F7E70023ADE73400BFE780FCFFFF96
S1132A3082FCFFFFA2FCFFFF1C2101231B04984220
S1132A4001D3000C10391B0A984201D3000A08393B
S1132A501B09984201D30009043902A2105C4018F2
S1132A607047C04604030202010101010000000096
S1132A700000000010B5002903D1FFF7DDFF20306E
S1132A8002E0081CFFF7D8FF10BDC04670B50D4E1C
S1132A900D4D0024AD1BAD1005D0A300F358013437
S1132AA09847A542F9D105F03FFD084E084D002492
S1132AB0AD1BAD1005D0A300F35801349847A542CF
S1132AC0F9D170BD348500003485000034850000E0
S1132AD03C850000F0B5830743D0541E002A3FD044
S1132AE0CEB20200032502E01A00013C38D3531C85
S1132AF016702B42F8D1032C2AD9FF220A40150262
S1132B0015432A0415430F2C14D927001A00103F2B
S1132B103E09013636019E19156055609560D560F1
S1132B2010329642F8D10F2297431037DB19144024
S1132B30032C0DD91A00271FBE080136B6009E19B2
S1132B4020C2B242FCD1032297430437DB1914405C
S1132B50002C05D0C9B21C19197001339C42FBD159
S1132B60F0BD14000300C6E710B5830725D0037831
S1132B70002B24D00300032102E01A78002A1AD083
S1132B8001330B42F9D119680E4A0F4C8A188A4353
S1132B90224206D1043319680A4A8A188A43224217
S1132BA0F8D01A001B78002B03D0013211780029C9
S1132BB0FBD1101A10BD181AFCE70300E3E700204C
S1132BC0F8E7C046FFFEFEFE8080808030B59BB0F3
S1132BD00091049108496D460291059101218224D6
S1132BE04942E981A4006946AC8100F045F800231C
S1132BF0009A13701BB030BDFFFFFF7F10B50400B7
S1132C001300034A10680A002100FFF7DFFF10BD1C
S1132C1010000020034B10B5002B02D0024800F036
S1132C2005F810BD000000003D2C000010B50100A7
S1132C3000230022002001F023FB10BD70B5094BD6
S1132C40094CE41AA41009D0084AA518AD00ED18DF
S1132C502B68013C9847043D002CF9D105F06EFC2B
S1132C6070BDC046488500004C850000FFFFFF3F53
S1132C707047C0467047C046F0B5DE4645465746E5
S1132C804E46E0B5C3B00D00069114000F930990B1
S1132C9002F0DEFB036818001993FFF765FF189034
S1132CA0AB891B0605D52B690793002B01D101F0D5
S1132CB063F832AB25930023A34625AFBB607B604A
S1132CC014931693159332AE17931A930A935B4693
S1132CD01B785C46002B1CD0252B02D119E0252B38
S1132CE003D001342378002BF9D15B46E51A10D0C8
S1132CF05B463360BB6875605B19BB607B680133FE
S1132D007B60072B2EDC08360A9B9C46AC4463464A
S1132D100A932378002B2ED0631C9B46002316AA0B
S1132D20D377012252429246002200210B92203294
S1132D309146203263788846002000249446594600
S1132D4001311A00203A582A00D9FDE2D74D9200E9
S1132D50AA5897460B9B0F925B420B9304231C4388
S1132D600B78EDE73A000699099803F01FFA00285A
S1132D7009D132AEC8E7BB68002B04D03A000699EB
S1132D80099803F013FA069B9B895B0601D501F0B1
S1132D90CEF80A9843B03CBC90469946A246AB464E
S1132DA0F0BD01220B7890462B20C9E74B1C9B46B3
S1132DB00B782A2B01D101F01BFA1A000021303ABA
S1132DC08A465946092ABCD80300110050465A467F
S1132DD09A46A34683001B1814785B0058182100F8
S1132DE0531C30391A000929F4D952461900824675
S1132DF0230010005C46A4E780231C430B789FE764
S1132E008B4641461293002901D001F01FFA10238A
S1132E101C430F9AA30601D500F088FEE30601D5F2
S1132E2000F080FD630601D400F07CFD0021535EB8
S1132E300C930432DB170D930F9201D500F086FE3C
S1132E400C990D9A080016ABDB7F104398460200DC
S1132E5001235146013100D1FFE080212000884345
S1132E600890002A00D0FCE05246002A01D000F06D
S1132E702CFC002B01D000F004FD012032AB2040DB
S1132E800E90119308D02723302128AAD15416AAD2
S1132E90944648336344119353460E9A07939245DC
S1132EA000DA0792002313934346002B02D0079BBA
S1132EB0013307930223089A1A40914602D0079BD4
S1132EC0023307938423089A1A40109200D04DE2EB
S1132ED00B9B079A9C1A002C00DC47E27449BA68E1
S1132EE07B688846102C1FDD31001025464603E020
S1132EF0103C0831102C15DD103201330E604D608A
S1132F00BA607B60072BF3DD3A000699099803F059
S1132F104DF9002800D036E7103CBA687B6832A926
S1132F20102CE9DCB0460E00414674600133A4184D
S1132F303160BC607B60072B01DD00F0A8FC16ABA0
S1132F40DB7F0836984612E28B46414612930029ED
S1132F5001D001F077F907220F9B07339343013225
S1132F6094469C4462460F921A6816925B6801224A
S1132F701593159B169D5B005B08984652424D4B7A
S1132F802800414604F0C6FF002801D000F0FDFDF2
S1132F900122484B52422800414603F043FD0028D9
S1132FA001D000F0F2FD002200231698159903F0D9
S1132FB02FFD002801D001F022F816ABDB7F9846E4
S1132FC0129B472B01DD00F0C7FE3B4B119380237E
S1132FD09C437D3B07930E93002308949A461393D6
S1132FE062E70022303B15001A0003000794080032
S1132FF02C009B46A3001C190378640014191A00C2
S11330000131303A0800092AF4D90B945846079C38
S113301097E608231C430B7892E6129310231C4373
S11330208B46A30600D57BE1E30601D500F07EFCC8
S1133030630601D400F07AFC0F9B1A880C920022DC
S113304004330F9300230D920C9A002116A8C17724
S113305088465146013100D0FFE6002A00D135E30D
S11330600894012B00D1E5E3022B00D062E3179C06
S11330700F20A146B44632AB19000C9A0D9B0400F4
S11330804D4614402C5D1E07150901392E430C7062
S11330901C092300340032001C43F0D10C920D9320
S11330A032AB5B1A119166460E93F5E6008100007F
S11330B0A8820000FFFFEF7F6482000012931023B8
S11330C01C438B46A30600D511E1E30601D500F0AD
S11330D031FC630601D400F02DFC0F9B1A880C927E
S11330E0002204330D920F930C9A0123ADE78B4613
S11330F041461293002901D001F090F8B84B179380
S1133100A30600D5ABE0E30601D500F007FC630697
S113311001D400F003FC0F9B1A880C9200220433A4
S11331200D920F93E30700D4A9E00C990D9A0B00BC
S113313013431A000223002A00D186E730201EA977
S1133140087048256846401900781C4348707CE79D
S11331508B464146002901D001F083F8A30601D52E
S113316000F0E9FDE30601D500F09BFD630601D400
S113317000F097FD69460F9B098D1A680433079286
S113318011800F93A3E54B461C430B78D8E51293AB
S11331900F9B8B461D1D1B6816A91A001193002353
S11331A0CB77002A01D100F0FBFE5346013301D155
S11331B000F038FE52460021119802F00BFC002862
S11331C001D100F054FF119BC31A1A000E93DB4384
S11331D0DB171A4016ABDB7F0792984600230F9546
S11331E008949A4613935FE60F9A1293136828ADD6
S11331F007936B461B7F8B462B70002316A9CB7756
S1133200130004330F930023089498460133079363
S11332100E93002311959A4613934BE68B46414631
S11332201293002900D1F4E516ABD877F1E5634693
S11332301C430B7884E50B786C2B01D100F086FDE0
S1133240102214437CE58B4641461293002901D099
S113325000F0E8FF634B1793A30600D453E707225B
S11332600F9B07339343013294469C4462460F926A
S11332701A685B680C920D93E30700D555E70C9927
S11332800D9A0800104302230200DEE68B460F99D4
S113329030220B680C9300230D9302331C431EABA6
S11332A01A7048325A700B0004330F934D4B12922C
S11332B017930C9A0223C8E601231C430B783FE5BD
S11332C00F9B1A1D1B680B93002B00DA42E50B7849
S11332D00F9235E50B78002800D031E5012220302B
S11332E090462DE58B461293A30600D4EDE6072203
S11332F00F9B07339343013294469C4462460F92DA
S11333001A685B6811001A00080010430C910D92B2
S11333100123020099E68B461293A30600D483E6A8
S113332007220F9B07339343013294469C44624621
S11333300F921A685B6811001A00080010430C9180
S11333400D920023020080E68B4641461293002929
S113335001D000F07FFF129B002B00D10BE528ADBC
S11333602B70002316AAD37708944EE7BC68434613
S1133370002B0FD016AA1F23944663443360012305
S113338073607B6801340133BC607B60072B00DD14
S1133390B3E108364B46002B0CD01EAB336002233E
S11333A073607B6802340133BC607B60072B00DDF3
S11333B0AFE10836109B802B00D120E153460E9AD2
S11333C09D1A002D3CDD084A7B689146102D2CDDAA
S11333D0102221009246099C32002E004D4609E03D
S11333E07482000088820000B8820000103E083217
S11333F0102E16DD50461031013315605060B9604F
S11334007B60072BF2DD3A000699200002F0CEFE25
S1133410002800D0B7E4103EB9687B6832AA102EA9
S1133420E8DCA9460C00350016004A46641901334D
S113343032607560BC607B60072B00DD51E10836AB
S1133440089BDB0500D5B6E0119B33600E9B9C46C0
S113345073607B6864440133BC607B60072B00DDD0
S11334609DE00836089B5B0741D50B9B079A9D1A84
S1133470002D3CDDC44A7B689046102D26DD1022C9
S113348021009146099C32002E00069D03E0103E67
S11334900832102E17DDBC48103110604846013345
S11334A05060B9607B60072BF1DD3A0029002000F1
S11334B002F07CFE002800D065E4103EB9687B6809
S11334C032AA102EE7DC35000C00160042466419BF
S11334D0013324C6BC607B60072B08DD3A000699E3
S11334E0099802F063FE002800D04CE4BC680B9BF2
S11334F007998B4200DA0B000A9A94469C4463466F
S11335000A93002C00D0D6E0002332AE7B60FFF794
S1133510DEFB149B012B00DCAEE0119B0134336015
S1133520012373607B68BC6001337B60072B00DD83
S1133530DFE20836199A01333260189A98469446A5
S113354064447260BC607B60072B00DDDEE20836F9
S1133550002200231698159903F054FA002800D08D
S1133560A4E1119D149B0135013B35607360E4189F
S113357001239C46E0444346BC607B60072B00DD8E
S11335808BE0083621AB33601A9B9C46736043463C
S113359064440133BC607B60072B00DC61E73A00C4
S11335A00699099802F002FE002801D0FFF7EBFB10
S11335B0BC6832AE56E7129B652BAADD00220023BD
S11335C01698159903F01EFA002800D1E2E06F4B1B
S11335D001343360012373607B68BC6001337B601A
S11335E0072B00DD66E308361F9B149A934200DA2A
S11335F0A4E1089BDB0700D5A0E1BC6832E70B9B84
S1133600079A9D1A002D00DCD8E6614A7B68914632
S1133610102D25DD102221009046099C32004E46D3
S113362003E0103D0832102D17DD40461031013300
S113363016605060B9607B60072BF2DD3A00069992
S1133640200002F0B3FD002801D0FFF79CFB103DE1
S1133650B9687B6832AA102DE7DCB1460C0016006D
S11336604A466419013332607560BC607B60072B85
S113367000DD7EE20836A1E60123089A134200D059
S11336804BE773607B68119A013301343260BC608C
S113369098467B60072B00DC73E73A00069909988B
S11336A002F084FD002801D0FFF76DFB7B68BC6845
S11336B0984632AE66E73A000699099802F076FD1C
S11336C0002800D120E7FFF75EFB089C012B00D106
S11336D084E1022B29D10894002300240C930D9437
S11336E0C5E43A000699099802F060FD002801D06B
S11336F0FFF749FBBC6832AEA2E63A000699099886
S113370002F054FD002801D0FFF73DFBBC6832AE47
S113371040E63A000699099802F048FD002801D0D5
S1133720FFF731FBBC6832AE44E608940023002462
S11337300C930D940C980D995B4632AA079391460D
S1133740B34600E0A1464A0794464B4665465C1ED4
S1133750C6080723CA08354311002A000340303342
S1133760237028000A43EDD10C900D9107995E4611
S11337708B4608994A461194C90700D53DE132ABFE
S11337801B1B0E93FFF788FBA8820000A482000095
S1133790B88200001F98002800DC96E2139A14995E
S11337A0130090468B4200DD88464346002B0CDD17
S11337B0119B44443360434673607B68BC600133AF
S11337C07B60072B00DDB7E308364346DB43424604
S11337D0DB171340139AD31A9846002B00DC28E118
S11337E0102B01DC00F0E7FCCF4A210091461022A7
S11337F07B689246099D32004C46464604E00832F6
S1133800103E102E00DC04E15046103101331460E8
S11338105060B9607B60072BF1DD3A0006992800FF
S113382002F0C4FC002801D0FFF7ADFAB9687B6848
S113383032AAE5E70D9B002B00D1CAE00C9C0D9D3C
S113384032ABB1461E00200029000A220023FEF7F5
S11338504BFC013E303232700023200029000A2242
S1133860FEF742FC030004000D000B43EBD13200D1
S113387032AB9B1A11960C940D954E460E93FFF79E
S11338800BFB00230E9332AB1193FFF705FB3A00B9
S11338900699099802F08AFC002801D0FFF773FA10
S11338A016ABDB7FBC68984632AE60E5149B5D1EA8
S11338B0002D00DC66E69C4B9946102D29DD102373
S11338C032009A462E0021004346099C4D4603E0EF
S11338D0103E0832102E17DD5046103101331560AA
S11338E05060B9607B60072BF2DD3A000699200036
S11338F002F05CFC002801D0FFF745FA103EB968DD
S11339007B6832AA102EE7DCA9460C0035009846E5
S113391016004B4675603360641929E60F9B1A68DC
S1133920FFF7FBFB13680793FFF782FA0F9B1A68F4
S1133930FFF784FB0F9B1A68FFF7D1FB199BBA684A
S11339403360189B9C4673607B68624401331400A7
S1133950BA607B60072B00DD02E20836149B5D1E13
S1133960002D00DC7EE5704A7B689146102D25DD34
S1133970102221009046099C32002E004D4603E09F
S11339800832103E102E15DD40461031013315600B
S11339905060B9607B60072BF2DD3A000699200085
S11339A002F004FC002801D0FFF7EDF9B9687B6848
S11339B032AAE6E7A9460C00350016004A46641907
S11339C0013332607560BC607B60072B00DC48E526
S11339D0E5E50C9B092B00D930E7089C27220C9BBA
S11339E028A930338B54012316AA94460E936E33C0
S11339F0634408941193FFF74FFA302B00D10BE284
S1133A003023023A137032AB9B1A0E931192FFF7D4
S1133A1043FAB046A14616000C004A4632604246BC
S1133A20444401337260BC607B60072B00DD9CE280
S1133A3008361F9B149A93424CDB089AD20749D448
S1133A40149A1399D31A521A90469A4200DD984652
S1133A504246002A0FDD1399119A8C466244326063
S1133A60424672607A6844440132BC607A60072A34
S1133A7000DD86E208364246D543ED1715405D1B4E
S1133A80002D00DCEEE4284A7B689146102D95DD7C
S1133A90102221009046099C32002E004D4603E07E
S1133AA00832103E102E85DD40461031013315607A
S1133AB05060B9607B60072BF2DD3A000699200064
S1133AC002F074FB002801D0FFF75DF9B9687B6848
S1133AD032AAE6E7199A3260189A944672607A68B4
S1133AE064440132BC607A60072A00DD30E20836A3
S1133AF0A6E73A000699099802F058FB002801D07D
S1133B00FFF741F9BC687B6832AE13E53A000699C9
S1133B10099802F04BFB002801D0FFF734F97B68C9
S1133B20BC68984632AE13E5B8820000072307321A
S1133B309A4301339C46944463460F935368126836
S1133B400D930C92002B01DBFFF77AF90C980D9979
S1133B50002342428B4111001A002D2316A8C3777B
S1133B60080010430C910D92984602002C3BFFF77D
S1133B7070F93A000699099802F018FB002801D060
S1133B80FFF701F9BC6832AE18E41699159D0A00D6
S1133B9008002B00290004F0BDF9002800D0E6E25B
S1133BA05346013300D10DE22023129A9A430E9218
S1133BB0472A00D11CE180235B0023430893159B13
S1133BC0002B00DA21E2169A079300239146109302
S1133BD0129B662B00D1FCE1462B00D1DBE00E9A50
S1133BE00998453A13005942594120AB0D000393FB
S1133BF01FAB0293022323AA55441B920492009301
S1133C000195079B4A4600F05FFC129B1190672BBD
S1133C1000D039E2119B9846A844E30700D48BE214
S1133C20002300224846079902F0ECFE4346002890
S1133C300AD1239B434507D2302140465A1C239284
S1133C401970239B9842F9D8119A9B1A14930E9BCE
S1133C50472B00D1F6E0129B652B00DC26E2129B79
S1133C60662B00D1F4E11F9B1393149B139A190044
S1133C70914200DDD4E1E30700D549E2D343DB17E9
S1133C8011001A40672307920E911293109B002B88
S1133C9000D0CFE016ABDB7F984600239A46FFF7AF
S1133CA003F90F9A0A9913681960130004330F93E8
S1133CB0FFF70DF83A000699099802F077FA002800
S1133CC001D0FFF760F832AE8EE4DE4B013433608E
S1133CD0012373607B68BC6001337B60072B7ADC53
S1133CE00836002807D1149B002B04D1089BDB075E
S1133CF001D4FFF7B7FB199B3360189B1919736044
S1133D007B68B96001337B60072B00DDF2E1320090
S1133D100832002800DACCE11198013310601498BD
S1133D207B6044185060BC60072B00DD37E4083228
S1133D301600FFF797FB0F990A9A0B681A60D217BF
S1133D405A600B0004330F93FEF7C1FF4B46013159
S1133D501C430B78FEF7F4FFBB4B1193FFF737F9C5
S1133D603A000699099802F021FA002801D0FFF7D9
S1133D700AF8BC6832AEF1E54021099801F076FBFF
S1133D80069B18601861002800D14FE24023069A70
S1133D905361FEF78EFF23AB1B93049320AB039375
S1133DA01FAB02935346019303234A460093099899
S1133DB0079B00F089FB55461190119B9846129B76
S1133DC0A844462B00D02BE7119B1B78302B16D030
S1133DD01F9B984424E73A000699099802F0E6F9F3
S1133DE0002801D0FEF7CFFF1F98BC6832AE78E7F9
S1133DF05346002B00D0DEE601339A46DBE6002270
S1133E0000234846079902F0FDFD0028E0D1012374
S1133E105B1B1F93984403E7119A32AB9B1A0E93D2
S1133E20FFF73AF81198FEF79FFE02000E90030088
S1133E30FFF7CDF92D2316AAD377984600239A4687
S1133E40FFF735F81F9B1393DA1C02DB9A4500DB5E
S1133E500BE7129B023B12932C22139B48215D1EFD
S1133E6016AB9B186A46521812781F951A70002DCB
S1133E7000DAA4E12D212B2316AA52181370092D60
S1133E8000DC4CE116AA3B23944663449A46B146AF
S1133E90A046564600E0260028000A21FEF71EF937
S1133EA0741E3031217028000A21FEF731F8050014
S1133EB00928F0DC23004446B0464E4699460300E8
S1133EC03033D8B24346023B18709A4500D8B4E167
S1133ED042461B9B4546991A012307315B4201E088
S1133EE0E85C013321AAD218D0708B42F8D116A90C
S1133EF08C462E224B4662449446FB1A634421AA04
S1133F0014999B1A9C460A0062441A930E92012942
S1133F1000DC45E1189A0E9B944663441A000E9304
S1133F20DB43DB171A40002307921393AEE6012309
S1133F305B420A93FEF72DFF3A000699099802F0B6
S1133F4035F9002801D0FEF71EFFBC6832AE3CE410
S1133F503A000699099802F029F9002801D0FEF7E1
S1133F6012FF1F9BBC6832AE6AE53A0006990998B5
S1133F7002F01CF9002801D0FEF705FFBC6832AE40
S1133F8057E53A000699099802F010F9002801D083
S1133F90FEF7F9FE149B1F9ABC689B1A32AE6AE5C1
S1133FA053460793062B01D906230793079B0F95C6
S1133FB00E93002398469A461393244B0894119326
S1133FC0FEF778FF2023129A9A431A3B0E929A46E0
S1133FD0F1E523AB1B93049320AB03931FAB029334
S1133FE05346019303234A4600930998079B00F024
S1133FF06BFA03005344119098465546E4E62D238A
S113400016AAD3779846FEF7DBFF80221206944661
S1134010169B9946159B634407932D231093D7E56C
S1134020189A149B9446139A63440E93002A00DC56
S1134030CEE01A00DB43DB171A4067230792129382
S113404024E6C046A4820000688200009C8200002E
S11340501F9B1393002B00DCD5E05246002A00D0AE
S113406092E0E20700D58FE007930E930EE616ABBD
S1134070DB7F0F959846534607930E9300230894CD
S11340809A461393FEF710FF119B9846129BA8447F
S1134090472B00D0C4E5E30700D58EE6239B119A95
S11340A09B1A14930E9B472B00D1CBE61F9B1393B3
S11340B0D2E64442103000DBD0E06E481026050002
S11340C003E00832103C102C38DD10310133156048
S11340D05660B9607B60072BF3DD3A0006990998B6
S11340E002F064F8002801D0FEF74DFEB9687B6841
S11340F032AAE7E73A000699099802F057F800282F
S113410001D0FEF740FE1F98B9687B6832AA00E62A
S1134110189A139B944663441A000E938AE72E213F
S1134120302316AA521813702B0016AA013130330B
S11341305218137022ABE2E6239B85E5A946484654
S11341400919013310605460B96008327B60072B91
S113415000DCE1E53A000699099802F027F8002806
S113416001D0FEF710FEB9687B6832AAD4E5159B2E
S1134170002B38DB16ABDB7F9846129B472B2EDCDB
S11341803D4B1193FEF723FF189A139B9446634407
S113419053441A000E93DB43DB171A40079275E56C
S11341A001232340139300D0B4E60E9AD343DB17C4
S11341B01A4007926AE52F4A7B6891462DE4012351
S11341C0139A1B399D1A16AA2C335218137056E6EB
S11341D00E9B139A981A431C1A000E932AE7274B36
S11341E01193FEF7F4FE2D2316AAD3779846C4E75D
S11341F00F9B1A1D1B689A46002B36DB4B780F92D7
S11342005946FEF79DFD5346002B01D1E30703D524
S1134210189B581C0300BBE7012325E716ABD8778E
S1134220FEF76CFF16ABD877FFF714F80C23099A46
S113423013600D3B0A93FEF7ACFD16AA2E23944699
S113424063445CE616ABD877FEF785FE16ABD877E9
S1134250FEF7DDFD16ABD877FFF77DF805488146FC
S11342606DE716ABD877FEF779FF01235B429A46D8
S1134270C4E7C046B88200006C820000708200006F
S1134280F0B54E464546DE465746E0B5364D83B05A
S11342900600286898460F009146FEF7E9FC334B68
S11342A01C68A4235B00E058002852D043681F2BED
S11342B013DC5A1C0192002E28D1019A02339B0070
S11342C042601F502868FEF7D5FC002003B03CBCB8
S11342D090469946A246AB46F0BD254B002B3DD0F7
S11342E0C820400000E000BF002837D0A4220023EB
S11342F05200A15843600160A05040328350043200
S11343008350013301930023002ED6D09A009246A5
S113431082444A46882154466250C422520091463F
S113432081444A468739994012688B460A43944629
S11343304A4661461160842241465200A150022E31
S1134340BBD102005C468D32FF3211680C4314600D
S1134350B3E720004D30FF30E050A7E72868FEF7B0
S113436089FC01204042B1E740040020FC800000A9
S113437000000000F0B545468046DE4657464E46EE
S11343804246E0B50C69126985B00B000291002029
S1134390944200DD90E014229446634499464A46D0
S11343A0013CA300D6181422424493469B4433682C
S11343B01500591C5B4618680192FDF71FFD031E8A
S11343C0009042D0290000274D460020B146A24665
S11343D03E0004009C462F0008000395634604CF6A
S11343E015042D0C5D43120C5A43AD192B0CD21835
S11343F003682D041904090C0919160C2D0C120458
S1134400491B120C1B0C9B1A0A149B1809041C143C
S1134410090C1B04194302C0B945DFD2039B4E4665
S113442099465B461B685446002B0ED15B46019AA5
S1134430043B9A4204D306E0043B013C9A4202D274
S113444019680029F8D043461C610299404601F0DE
S113445087FD00282FDB4F460020009B019D013380
S113446000932B6802CF1A04120C10180A04120CC1
S1134470821A090C1B0C5B1A11145B181204181411
S1134480120C1B04134308C5BE42EAD20199A300CF
S11344908C4663441A68002A0DD1043B0A009942F1
S11344A004D306E0043B013C9A4202D21968002975
S11344B0F8D043461C61009805B03CBC9046994630
S11344C0A246AB46F0BDC046F0B557464E464546FB
S11344D0DE46E0B5016C99B082461D0016001F004F
S11344E0002909D00123426C93404A608B6001F09B
S11344F02BFB002352461364B846002F37DB0023FE
S1134500259A13604246D64B1A409A4218D000228C
S113451000233000390002F075FA00282FD001235F
S1134520249A1360269B002B00D12AE2CD48186000
S1134530013819B03CBC90469946A246AB46F0BD42
S1134540C94B249A1360002E0BD14346180308D19B
S1134550269BC648002BECD003000833269A136030
S1134560E7E7269BC248002BE3D0C31CF6E70123F0
S1134570259A68001360430898461F00C2E716ABEB
S1134580019317AB009332003B00504601F09EFDAF
S1134590434683461A0D00D1D6E13B03B54C1B0BB1
S11345A01C43B54B30009846169B210099460023C6
S11345B090440F930022B14B03F096F9B04AB14BEB
S11345C0FDF79CFEB04AB14B02F04AFA04004046A3
S11345D00D00FEF713F9AE4AAE4BFDF78FFE020055
S11345E00B002000290002F03BFA04000D0003F048
S11345F0B1FC0022039000232000290002F008FAF5
S1134600002800D0B1E20123039C0C93162C10D88F
S1134610A149E300C9183200086849683B0002F068
S11346200BFA002800D11DE32300013B0393002370
S11346300C934B4642469A1A002306931300013BFF
S1134640049300D5A1E2039B002B00DA84E29C468C
S11346500D930023049A9946110061440491229B0E
S1134660092B00D98FE10124052B02DD0024043B32
S11346702293229B032B01D100F0CEFC01DC00F03D
S113468092FC229B042B01D100F040FC01230B93EC
S1134690229B052B01D000F08BFC239A039B9446AC
S11346A063440E93013307931D1E01DC00F049FDA2
S11346B0079B98460023524600215364172D0AD9BC
S11346C0012204335B0018001430110001328542CA
S11346D0F8D253465964504601F00EFA5346186412
S11346E043460A900E2B00D961E1002C00D15EE113
S11346F010961197039E002E01DC00F025FD320078
S11347000F21654B0A40D2009B1836111C685D6866
S1134710F30601D400F0CAFC604B0E401A6A5B6ACF
S11347201098119902F0ACFC032398460890099163
S1134730002E11D0594F0123334209D09C463A68C8
S11347407B6820002900E044FDF7D8FD04000D003B
S113475076100837002EEED12200089809992B0014
S113476002F08EFC06000F000C9B002B09D00022E7
S1134770404B3000390002F04BF9002801D000F022
S1134780C2FD4046FEF73AF832003B00FDF7B6FDA5
S11347900022434B02F064F9424A0B0094466344FE
S11347A0089009910993079B002B01D100F050FC5C
S11347B0039B1393079B12930B9B002B01D100F0D7
S11347C01DFD129B00205A1E334BD2009B181A6801
S11347D05B68354902F054FC089A099B03F084F89D
S11347E0089009913900300003F0B4FB0400FEF78F
S11347F005F802000B003000390003F075F80500DD
S11348000E000A9A3034511CE7B214911770330029
S1134810089809992A0002F00FF9002801D000F045
S1134820FEFD2A0033000020124903F05DF8020067
S11348300B000898099902F0FFF8002801D000F055
S1134840E7FD129B012B01D100F078FC0A9A129B20
S11348509446634498464B461293149B994638E019
S11348600000F07FA58200000F270000C88200002E
S1134870D48200000000F03F01FCFFFF0000F83F7D
S113488061436F63A787D23FB3C8608B288AC63F52
S1134890FB799F501344D33F00830000D88200006B
S11348A000001C400000C0FC0000E03F2A00330070
S11348B00020B94903F018F8089A099B02F0A8F8F7
S11348C0002801D000F074FDA146444501D100F058
S11348D033FC089809990022B04BFDF70FFD002224
S11348E0AE4B0890099128003100FDF707FD0D003B
S11348F0040003F02FFB0700FDF780FF02000B000C
S11349002000290002F0F0FF4B463037FFB25C1C58
S11349101F70089A099B05000E0002F079F8002820
S1134920C4D0139B03935946504601F00DF900235C
S11349302370039B249A01331360269B002B00D120
S1134940A8E31C600A98F4E5169B9946179B4B4410
S11349501C00934BE318202B00DC7EE13100914ACC
S11349604046A218D1400A004021CB1A9840104377
S113497003F024FB631E984601238B4D0F934919C2
S113498018E68A48D5E50023524600215364504670
S113499001F0B2F85346186401235B4207930E9367
S11349A0023300220B9300230A9023922293179B35
S11349B0002B00DAABE0039A0E2A00DDA7E07C4B63
S11349C0D2009B185C681B6804930594239B002BFE
S11349D000DAA7E2049C059D300022002B00390078
S11349E002F04EFB03F0B6FA8046FDF707FF220003
S11349F02B00FDF783FC02000B003000390002F0AD
S1134A0073FF43460A9A30331370079B06000F0066
S1134A10541C012B4ED00022604BFDF76FFC00228A
S1134A20002306000F0001F0EDFF002800D07AE714
S1134A300A9B079A9D1C9C465B4606935346624418
S1134A40AA46049C059D914607930FE00022534B10
S1134A50FDF754FC01239C460022002306000F00AE
S1134A60E24401F0CFFF002800D0D9E222002B005D
S1134A703000390002F004FB03F06CFA8046FDF7C5
S1134A80BDFE22002B00FDF739FC02000B003000B4
S1134A90390002F029FF53464246013B30320600FA
S1134AA00F00D3461A70D145D0D1069B54469B467D
S1134AB0079B9A4632003B003000390001F0D0FFDA
S1134AC006000F0002000B000498059901F0A0FFF6
S1134AD000280CD10498059932003B0001F092FFA4
S1134AE0002800D11FE74346DB0700D41BE7651EFF
S1134AF02F780A9B06E09D4200D151E3023C2778BF
S1134B002C00013D392FF6D001372F700BE70B9A9B
S1134B10002A4FD0229A012A00DC2CE2079B5C1E5B
S1134B204B46A14500DAB8E21C1B079B002B00DAB8
S1134B30D4E3069B0893079B069A012194469C4460
S1134B4062460692049A504694469C4463460493F3
S1134B5001F092F8804632E0069A039BD21A5B4237
S1134B609946002306920D9379E50398FDF746FED6
S1134B700B0002002900200001F044FF0200504213
S1134B805041039B1B1A03933DE501239B1A069393
S1134B900023049357E5C0460000F03F0000244082
S1134BA03204000012040000000010FEA482000081
S1134BB000830000069B4C460893002398460899FE
S1134BC00B1E0EDD049A002A0BDD934200DD87E103
S1134BD0069AD21A0692089AD21A0892049AD31AFA
S1134BE004934B46002B1AD00B9B002B00D1BBE146
S1134BF0002C10DD41462200504601F0F1F85A46DF
S1134C0001008046504601F041F8050059465046DF
S1134C1000F09AFFAB464B461A1B00D0A5E10121D8
S1134C20504601F029F80D9B8146002B1DDD1A002A
S1134C300100504601F0D4F8229B8146012B00DC90
S1134C4050E100244B461B6903339B004B445868D6
S1134C5000F0CAFF20231B1A10E020223000D31AD0
S1134C60984085E600230C93E3E4229B0024012B67
S1134C7000DC8BE10D9A0123002AE3D104991F2063
S1134C808C466344184000D1AEE020231B1A042B49
S1134C9000DCCCE31C23181A069B9C468444634620
S1134CA00693089B9C46844463468C46844408933C
S1134CB063460493069B002B05DD59461A005046B3
S1134CC001F0EEF88346049B002B05DD49461A00EB
S1134CD0504601F0E5F881460C9B002B00D094E08F
S1134CE0079B002B00DC75E10B9B002B00D1A6E099
S1134CF0089B002B05DD41461A00504601F0D0F810
S1134D00804643460C93002C00D050E2079C0A9A3C
S1134D10013C2300944663440893012333400793E2
S1134D204B4606930C9B574645465E46924698462C
S1134D30069B300019009946FFF71CFB03000B90FB
S1134D40303329003000049301F00AF94946040085
S1134D504246380001F01EF9C3688146002B00D09A
S1134D601EE10100300001F0FBF88346494638009B
S1134D7000F0EAFE5B46229A134303D1079B002B03
S1134D8000D106E3002C00DAA8E1229B1C4303D1E6
S1134D90079B002B00D1A1E15B46002B00DD82E2E2
S1134DA0694652465346097C5C1C1170089A524568
S1134DB000D18AE2310000230A22380000F0CEFE3E
S1134DC0002306000A2229003800454500D1E1E00D
S1134DD000F0C4FE4146050000230A22380000F01A
S1134DE0BDFEA2468046A3E71C20069B9C46844445
S1134DF063460693089B9C46844463460893049B3D
S1134E009C4684446346049354E74946584601F05B
S1134E10A7F8002800DB63E7039B5946013B039393
S1134E200A220023504600F099FE0B9B8346002B78
S1134E3000D0CAE20E9B002B00DCD8E207930A9B49
S1134E405D460024079F9B4606E0290000230A22B2
S1134E50504600F083FE050049462800FFF78AFA11
S1134E605B46303018550134BC42EEDBAB460600DD
S1134E70079C002C00DC37E20A9B00279C46644414
S1134E8059460122504601F00BF84946834601F089
S1134E9067F8002800DC44E1651E2B780A9A06E0D6
S1134EA0954200D1B1E0023C23782C00013D392B1E
S1134EB0F6D001332B704946504600F045FE434678
S1134EC0002B00D12FE5002F05D0474503D0390032
S1134ED0504600F039FE4146504600F035FE22E5CA
S1134EE0130075E6002E00D0ABE63B030024002B34
S1134EF000D0BFE6BA4B3B4200D1BBE6069B01346F
S1134F0001330693049B01330493B3E601230B930B
S1134F10239B002B00DCD1E01D0098460E930793E1
S1134F20FFF7C8FB079B002B00DD53E500D0ADE085
S1134F30049805990022AB4BFDF7E0F93B003200E1
S1134F4001F084FD002399469846002855D0239B00
S1134F500A9CDB4303934946504600F0F5FD434663
S1134F60002B00D1DFE4B6E74A465946504600F02C
S1134F7037FF834653E60F9A002A00D1B6E19A4AD6
S1134F804C469446069A63440892D5E5002E00D018
S1134F9070E6AAE700F0E2FDA24605008046C7E6F7
S1134FA001239B46E2E600230B93229B022BAFD006
S1134FB00024534621005C64504600F09DFD534696
S1134FC0186401235B4207930E9302330A902394DF
S1134FD00B93ECE4229B022B00DC85E6079B002B61
S1134FE0B5D149460522504600F0B8FD814601007E
S1134FF0584600F0B5FF0028A9DD31230A9A137042
S1135000039B541C01330393A5E7039B0A9A0133C2
S11350100393312313704EE700230B93FFF73DFBFB
S1135020069B5C469B46079B9A467CE44046FDF7FC
S1135030E5FB32003B00FDF761F900226B4B01F008
S11350400FFD6B4A0B009446634408900991099341
S11350500022644B3000390002F046FC089E099F90
S113506032003B0004000D0001F0E6FC002800D0F3
S1135070B2E0802000068446390061440B0032000F
S11350802000290001F0C4FC002857D000239946D1
S113509098465CE70A98FFF74CFAE21A0D9BA14682
S11350A09C469444634600240D933EE5109A119B5C
S11350B00892099302239846FFF73AFB00235246CD
S11350C000215364504600F017FD53461864012331
S11350D00A90079323930E93FFF707FB43460C9321
S11350E05B46069AA846B3465546049E9146BA4680
S11350F0002B10DD59460122380000F0D1FE49464C
S1135100834600F02DFF002800DC57E1392E00D142
S113511022E10B9E31360C9B47466C1C2E70984640
S1135120C9E6002803D1F30701D5B5E61C00631EC8
S11351301A78302AFAD0BEE6129B9946109E119F27
S113514035E40125FFF7B4FA039B002B00D1D4E02A
S1135150109811995C420F23264A2340DB00D31890
S11351601A685B68FDF7CAF8241106000F00002CCA
S113517000D149E1022398461F4D0123234209D05F
S11351809C462A686B6830003900E044FDF7B6F8A5
S113519006000F0064100835002CEED1FFF7E4FA86
S11351A0039B30270133039330232B70ACE45968FD
S11351B0504600F0A1FC4346414604001B690C31F3
S11351C09A1C92000C3000F045FC0122210050464C
S11351D000F066FE0C9099E50023994698460CE78A
S11351E00000F07F000014403304000000001C4065
S11351F00000C0FC00830000D8820000129B8F498D
S1135200013BDB00C91808684968089A099BFDF747
S113521075F8149015913900300002F09BFE0500DA
S1135220FDF7ECFA02000B003000390002F05CFBE1
S1135230129B089009910A991A008C4630356244F1
S11352404C1C0D709046012B1BD008980999250021
S113525000227B4BFDF752F80F00060002F07AFEA5
S11352600400FDF7CBFA303402000B0030003900A3
S113527002F03AFB2C700135A845E9D14446089068
S113528009911498159900226E4B01F0E9FB089AD4
S1135290099B01F0BDFB002867D0139B651E039397
S11352A02F780A9B2EE44346B3460C93049E069B38
S11352B0A84699465546BA46392E4DD00C9B013620
S11352C047466C1C2E709846F5E54246069BB3464D
S11352D0BA46049E99462F009046D1E5069B079A4C
S11352E09B1A0893002327E40124C5E53623169A64
S11352F04C469B1A069A08921EE40223109E119FA4
S11353009846FFF731FA079B002B00D18EE60E9CDE
S1135310002C00DC12E7039B0022013B13933000B6
S1135320474B3900FCF7EAFF060040460F00013006
S1135330FDF764FA32003B00FCF7E0FF0022424B29
S113534001F08EFB414A0B00944663440890099196
S113535012940993FFF730FA39232B700C9B4746BC
S11353606C1C98460A9A3923A1E5149A159B0020CF
S1135370344902F0B9FA089A099B01F05DFB002850
S113538001D1DBE61C00631E1A78302AFAD0FFF73D
S1135390C8FA4346B3460C93049E069BA846994616
S11353A05546BA46392ED7D0002C00DDB1E6B2E618
S11353B0139A4D4603920A9BFFF7A4FB002800D0E2
S11353C0A9E6F30700D4A6E6A0E6002341460A2294
S11353D0504600F0C3FB0E9B8046002B01DD079373
S11353E086E4229B022B1FDC0E9B079380E4229B06
S11353F0022B19DC4946FEF7BDFF0A9B30301870BA
S11354000E9B0600079333E502239846FFF7ACF999
S1135410139B149C03930A9B1D00FFF773FB139BC0
S1135420149C0393FFF77FFA0E9B0793D6E5042B96
S113543000D13FE43C23181AD7E4C046008300009F
S1135440000024400000E03F00001C400000C0FCBD
S1135450044B1B68586B002801D0F0307047024899
S1135460FBE7C0461000002054080020F0B5574662
S11354704546DE464E46E0B50D000B3583B00700C9
S1135480162D00D89FE007239D4300D5C4E0A94210
S113549000D9C1E000F020FBF823FF339D4200D87F
S11354A08FE2680A00D1BBE0042800D962E1382306
S11354B09846A80980443930C100D24E7118083981
S11354C0CC68A14219D0032362689A431300521B8B
S11354D00F2A00DDAAE0002A00DB88E003239C46B3
S11354E008E06246636893435A1B0F2A00DD9DE07F
S11354F0002A7CDAE468A142F3D13200346908322C
S1135500944200D190E10323616899438946491B81
S11355100F2900DD62E172613261002900DB87E05E
S1135520B94A4B46914500D930E1DB08FF3A99105E
S1135530FF3A8A40DB0071689B190A4399687260DC
S1135540E360A1609C601300CC6001218210914053
S113555099426FD80B4205D103229043490004308D
S11355600B42FBD003239846C3009946B144CC4672
S113557082466346DC68A44507D157E1002A00DB74
S113558066E1E468A44500D150E142466368934370
S11355905A1B0F2AF2DD012080466119054365601C
S11355A0A068E5680836C560A8604046F160B1604F
S11355B010434860CE608E603800E25000F094FAE8
S11355C02000083021E0102926D8380000F084FAA1
S11355D01025182302208B4EF3181A005C68083A31
S11355E0944200D12EE1032362689A431300E268D7
S11355F0A168CA6091600122E318596838000A431F
S11356005A6000F071FA2000083003B03CBC9046A8
S11356109946A246AB46F0BD0C2300203B60F4E75C
S113562080213F2340208900984646E7404664E7AE
S11356304B46E0E70323B46862689A439046AA4263
S113564003D3531B0F2B00DD86E0230043446F4A32
S113565001936F4B93461B681268EB18013200D11B
S113566068E16C4A944663441B0B1B030093009946
S1135670380000F089FD03008146013361D0019BAD
S1135680834200D9FFE0644B009A9A461B689C460B
S1135690534662441A60019B1100834200D155E1D4
S11356A05B461B68013300D16CE14B46019A9B1A9F
S11356B059185346196007234A46134000D124E180
S11356C0082189465549D21A9144CB1A009A3800C8
S11356D04A441105090D5B1A19009B4600F054FD5C
S11356E0431C00D142E14B46C01A012358441843DD
S11356F053461B685B441900534619604B46B3601C
S11357005860B44213D043460F2B00D8E8E0434618
S1135710072260680C3B9343063A024005201A4373
S11357206260E218506090600F2B00D922E13C4B7C
S11357301A68914200D919603A4B1A68914200D90B
S113574019600323B46862689A43531B954200D9D5
S1135750C9E00F2B00DCC6E00122290013431143EA
S1135760651961603800B5606B6000F0BDF9200018
S113577008304AE714287AD9542800D9BAE06E23AD
S11357809846280B80446F30C10096E65A0A042AD2
S113579073D9142A00D9D0E011005C325B31D200F5
S11357A008235B429C46B218944463469A680323D8
S11357B09846944500D1ABE04346516899438945E6
S11357C000D395E092689445F6D16346DA6873682D
S11357D06146E260A1609460CC60B6E60123601982
S11357E01D43656070613061C26082601A004B467F
S11357F00A4342603800E15000F076F92000083096
S113580003E7C04644040020FF0100004C080020C8
S11358104C0A00200F1000001C0A00200810000091
S1135820440A0020480A002073688EE608239B4639
S1135830073BDC449B46DA4443465246134200D0BD
S113584097E637E0DC680230A34200D155E6CAE6A9
S11358500122E318596838000A435A60E368A268D1
S1135860D3609A6000F040F920000830CDE65B2355
S1135870984680445C30C1001FE69A091100393211
S11358803831D2008CE7B44200D05AE74F4B009A2B
S11358909A461B689C465346624411001A60FFE610
S11358A008235B429C46E1444B469B68013899457A
S11358B000D084E043460342F2D173688B437360A3
S11358C04900994200D9B5E6002900D1B2E6504614
S11358D00B4200D048E6490004300B42FBD043E6BB
S11358E001234A465360380000F0FEF800208CE69D
S11358F094466AE7AA235B00984211D8DD3B984698
S1135900E80B80447830C100D7E580235B01DDE6F5
S11359108910023B8B40726813437360624657E7F9
S11359202B4B98421CD87C239846A80C80447D308D
S1135930C100C2E51033009399E6542A26D84B4699
S11359401A0B11006F326E31D20029E71B0500D00B
S1135950A6E60120009BB268434403435360E6E695
S1135960FE217E237F2089009846A6E5002301209E
S11359709B46BDE621003800083100F023FD534664
S11359801968D4E65B464A461A6094E6AA2149009F
S11359908A4206D84B46DA0B110078327731D200AE
S11359A0FEE60B498A4206D84B469A0C11007D321A
S11359B07C31D200F4E6FE227E219200F0E6736888
S11359C07EE72B00E808083305E6C0461C0A0020E1
S11359D05405000070B5CDB2830734D0541E002A9C
S11359E01BD00378AB4219D0032204E0013C14D34A
S11359F00378AB4212D001301042F7D1032C0ED8F9
S1135A00002C0AD00378AB4208D0041902E00378D2
S1135A10AB4203D001308442F9D1002070BDFF2293
S1135A200B061B0C114019430B04084E1943036861
S1135A30074A4B409A189A433242E3D1043C04305B
S1135A40032CF4D8DCE71400D8E7C04680808080BB
S1135A50FFFEFEFEF0B505000F2A2FD90B0003430D
S1135A609B0734D116000C000300103E35090135A4
S1135A702D01451927681F6067685F60A7689F60EC
S1135A80E7681034DF6010339D42F3D10F239E4347
S1135A901036851989191340032B1AD91E1F0023A8
S1135AA0B4080134A400CF58EF500433A342FAD110
S1135AB00324A643331D2240C918ED18002A05D03B
S1135AC00023CC5CEC5401339342FAD1F0BD0500C1
S1135AD0F6E71A00F2E7C04610B50248FDF7C8F829
S1135AE010BDC046000C002010B50248FDF7C2F8F6
S1135AF010BDC046000C002070B50400C06C0D0041
S1135B0000280AD0AB00C318186800280FD0026818
S1135B101A6000230361C36070BD212204212000A8
S1135B2000F0D4FBE0640028ECD10020F4E7012667
S1135B30AE40721D92000121200000F0C7FB002836
S1135B40F3D045608660E4E7002906D04B689A00EC
S1135B50C36C9B181A680A6019607047F8B5CE4682
S1135B6047468146080080B50D000C691F000021DE
S1135B701430036801311E04360C56431B0C534386
S1135B80F619370CDB1936041F0C360C1B049B1951
S1135B9008C08C42EDDC002F08D0AB689C420ADAC6
S1135BA0231D9B00EB1801345F602C6128000CBCA2
S1135BB090469946F8BD6B684846591CFFF79CFF10
S1135BC029002B6980469A1C92000C310C30FFF797
S1135BD041FF6B689A004B46DB6C9B181A682A607D
S1135BE01D604546DCE7C0460300020C0020002A85
S1135BF001D11B0410301A0E01D108301B021A0FF8
S1135C0001D104301B019A0F01D102309B00002BFB
S1135C1003DB01305B0000D42020704703685A077F
S1135C2009D00022D90704D49A0720D402229B0861
S1135C3003601000704719040022002901D11B0CD5
S1135C401032FF21194201D108321B0A190701D170
S1135C5004321B09990701D102329B08D90704D4E5
S1135C605B0801D12022E4E701320360E1E75B082D
S1135C7003600122DDE7C04610B50C000121FFF7E7
S1135C803BFF01234461036110BDC046F0B5574694
S1135C904E464546DE46E0B514690E6985B00F00F0
S1135CA01500A64204DA3300170026000D001C007C
S1135CB033199846BB687968984500DD0131FFF7D0
S1135CC01BFF14220300944663449B4643469B00F7
S1135CD05B441900029303905B4600228B4503D278
